{
  "_format": "hh-sol-artifact-1",
  "contractName": "BatchCallAndSponsor",
  "sourceName": "contracts/BatchCallAndSponsor.sol",
  "abi": [
    {
      "inputs": [],
      "name": "ECDSAInvalidSignature",
      "type": "error"
    },
    {
      "inputs": [
        {
          "internalType": "uint256",
          "name": "length",
          "type": "uint256"
        }
      ],
      "name": "ECDSAInvalidSignatureLength",
      "type": "error"
    },
    {
      "inputs": [
        {
          "internalType": "bytes32",
          "name": "s",
          "type": "bytes32"
        }
      ],
      "name": "ECDSAInvalidSignatureS",
      "type": "error"
    },
    {
      "anonymous": false,
      "inputs": [
        {
          "indexed": true,
          "internalType": "uint256",
          "name": "nonce",
          "type": "uint256"
        },
        {
          "components": [
            {
              "internalType": "address",
              "name": "to",
              "type": "address"
            },
            {
              "internalType": "uint256",
              "name": "value",
              "type": "uint256"
            },
            {
              "internalType": "bytes",
              "name": "data",
              "type": "bytes"
            }
          ],
          "indexed": false,
          "internalType": "struct BatchCallAndSponsor.Call[]",
          "name": "calls",
          "type": "tuple[]"
        }
      ],
      "name": "BatchExecuted",
      "type": "event"
    },
    {
      "anonymous": false,
      "inputs": [
        {
          "indexed": true,
          "internalType": "address",
          "name": "sender",
          "type": "address"
        },
        {
          "indexed": true,
          "internalType": "address",
          "name": "to",
          "type": "address"
        },
        {
          "indexed": false,
          "internalType": "uint256",
          "name": "value",
          "type": "uint256"
        },
        {
          "indexed": false,
          "internalType": "bytes",
          "name": "data",
          "type": "bytes"
        }
      ],
      "name": "CallExecuted",
      "type": "event"
    },
    {
      "stateMutability": "payable",
      "type": "fallback"
    },
    {
      "inputs": [
        {
          "components": [
            {
              "internalType": "address",
              "name": "to",
              "type": "address"
            },
            {
              "internalType": "uint256",
              "name": "value",
              "type": "uint256"
            },
            {
              "internalType": "bytes",
              "name": "data",
              "type": "bytes"
            }
          ],
          "internalType": "struct BatchCallAndSponsor.Call[]",
          "name": "calls",
          "type": "tuple[]"
        }
      ],
      "name": "execute",
      "outputs": [],
      "stateMutability": "payable",
      "type": "function"
    },
    {
      "inputs": [
        {
          "components": [
            {
              "internalType": "address",
              "name": "to",
              "type": "address"
            },
            {
              "internalType": "uint256",
              "name": "value",
              "type": "uint256"
            },
            {
              "internalType": "bytes",
              "name": "data",
              "type": "bytes"
            }
          ],
          "internalType": "struct BatchCallAndSponsor.Call[]",
          "name": "calls",
          "type": "tuple[]"
        },
        {
          "internalType": "bytes",
          "name": "signature",
          "type": "bytes"
        }
      ],
      "name": "execute",
      "outputs": [],
      "stateMutability": "payable",
      "type": "function"
    },
    {
      "inputs": [],
      "name": "nonce",
      "outputs": [
        {
          "internalType": "uint256",
          "name": "",
          "type": "uint256"
        }
      ],
      "stateMutability": "view",
      "type": "function"
    },
    {
      "stateMutability": "payable",
      "type": "receive"
    }
  ],
  "bytecode": "0x6080604052348015600f57600080fd5b506112ae8061001f6000396000f3fe6080604052600436106100385760003560e01c80633f707e6b1461003b5780636171d1c914610057578063affed0e01461007357610039565b5b005b61005560048036038101906100509190610896565b61009e565b005b610071600480360381019061006c9190610939565b61011a565b005b34801561007f57600080fd5b50610088610301565b60405161009591906109d3565b60405180910390f35b3073ffffffffffffffffffffffffffffffffffffffff163373ffffffffffffffffffffffffffffffffffffffff161461010c576040517f08c379a000000000000000000000000000000000000000000000000000000000815260040161010390610a4b565b60405180910390fd5b6101168282610307565b5050565b606060005b858590508110156101f1578186868381811061013e5761013d610a6b565b5b90506020028101906101509190610aa9565b60000160208101906101629190610b2f565b87878481811061017557610174610a6b565b5b90506020028101906101879190610aa9565b6020013588888581811061019e5761019d610a6b565b5b90506020028101906101b09190610aa9565b80604001906101bf9190610b5c565b6040516020016101d3959493929190610ccd565b6040516020818303038152906040529150808060010191505061011f565b506000805482604051602001610208929190610d15565b604051602081830303815290604052805190602001209050600061022b826103ac565b9050600061027d8287878080601f016020809104026020016040519081016040528093929190818152602001838380828437600081840152601f19601f820116905080830192505050505050506103e2565b90503073ffffffffffffffffffffffffffffffffffffffff168173ffffffffffffffffffffffffffffffffffffffff16146102ed576040517f08c379a00000000000000000000000000000000000000000000000000000000081526004016102e490610d89565b60405180910390fd5b6102f78888610307565b5050505050505050565b60005481565b60008054905060008081548092919061031f90610dd8565b919050555060005b8383905081101561036c5761035f84848381811061034857610347610a6b565b5b905060200281019061035a9190610aa9565b61040e565b8080600101915050610327565b50807f280bb3599696acbf79fb8ffcde81a57337b52500f789600fbb1cff9b4cbaba39848460405161039f92919061109b565b60405180910390a2505050565b60007f19457468657265756d205369676e6564204d6573736167653a0a33320000000060005281601c52603c6000209050919050565b6000806000806103f28686610573565b92509250925061040282826105cf565b82935050505092915050565b60008160000160208101906104239190610b2f565b73ffffffffffffffffffffffffffffffffffffffff16826020013583806040019061044e9190610b5c565b60405161045c9291906110bf565b60006040518083038185875af1925050503d8060008114610499576040519150601f19603f3d011682016040523d82523d6000602084013e61049e565b606091505b50509050806104e2576040517f08c379a00000000000000000000000000000000000000000000000000000000081526004016104d990611124565b60405180910390fd5b8160000160208101906104f59190610b2f565b73ffffffffffffffffffffffffffffffffffffffff163373ffffffffffffffffffffffffffffffffffffffff167fed7e8f919df9cc0d0ad8b4057d084ebf319b630564d5da283e14751adc931f3a84602001358580604001906105589190610b5c565b60405161056793929190611182565b60405180910390a35050565b600080600060418451036105b85760008060006020870151925060408701519150606087015160001a90506105aa88828585610733565b9550955095505050506105c8565b60006002855160001b9250925092505b9250925092565b600060038111156105e3576105e26111b4565b5b8260038111156105f6576105f56111b4565b5b031561072f57600160038111156106105761060f6111b4565b5b826003811115610623576106226111b4565b5b0361065a576040517ff645eedf00000000000000000000000000000000000000000000000000000000815260040160405180910390fd5b6002600381111561066e5761066d6111b4565b5b826003811115610681576106806111b4565b5b036106c6578060001c6040517ffce698f70000000000000000000000000000000000000000000000000000000081526004016106bd91906109d3565b60405180910390fd5b6003808111156106d9576106d86111b4565b5b8260038111156106ec576106eb6111b4565b5b0361072e57806040517fd78bce0c00000000000000000000000000000000000000000000000000000000815260040161072591906111fc565b60405180910390fd5b5b5050565b60008060007f7fffffffffffffffffffffffffffffff5d576e7357a4501ddfe92f46681b20a08460001c111561077357600060038592509250925061081d565b6000600188888888604051600081526020016040526040516107989493929190611233565b6020604051602081039080840390855afa1580156107ba573d6000803e3d6000fd5b505050602060405103519050600073ffffffffffffffffffffffffffffffffffffffff168173ffffffffffffffffffffffffffffffffffffffff160361080e57600060016000801b9350935093505061081d565b8060008060001b935093509350505b9450945094915050565b600080fd5b600080fd5b600080fd5b600080fd5b600080fd5b60008083601f84011261085657610855610831565b5b8235905067ffffffffffffffff81111561087357610872610836565b5b60208301915083602082028301111561088f5761088e61083b565b5b9250929050565b600080602083850312156108ad576108ac610827565b5b600083013567ffffffffffffffff8111156108cb576108ca61082c565b5b6108d785828601610840565b92509250509250929050565b60008083601f8401126108f9576108f8610831565b5b8235905067ffffffffffffffff81111561091657610915610836565b5b6020830191508360018202830111156109325761093161083b565b5b9250929050565b6000806000806040858703121561095357610952610827565b5b600085013567ffffffffffffffff8111156109715761097061082c565b5b61097d87828801610840565b9450945050602085013567ffffffffffffffff8111156109a05761099f61082c565b5b6109ac878288016108e3565b925092505092959194509250565b6000819050919050565b6109cd816109ba565b82525050565b60006020820190506109e860008301846109c4565b92915050565b600082825260208201905092915050565b7f496e76616c696420617574686f72697479000000000000000000000000000000600082015250565b6000610a356011836109ee565b9150610a40826109ff565b602082019050919050565b60006020820190508181036000830152610a6481610a28565b9050919050565b7f4e487b7100000000000000000000000000000000000000000000000000000000600052603260045260246000fd5b600080fd5b600080fd5b600080fd5b600082356001606003833603038112610ac557610ac4610a9a565b5b80830191505092915050565b600073ffffffffffffffffffffffffffffffffffffffff82169050919050565b6000610afc82610ad1565b9050919050565b610b0c81610af1565b8114610b1757600080fd5b50565b600081359050610b2981610b03565b92915050565b600060208284031215610b4557610b44610827565b5b6000610b5384828501610b1a565b91505092915050565b60008083356001602003843603038112610b7957610b78610a9a565b5b80840192508235915067ffffffffffffffff821115610b9b57610b9a610a9f565b5b602083019250600182023603831315610bb757610bb6610aa4565b5b509250929050565b600081519050919050565b600081905092915050565b60005b83811015610bf3578082015181840152602081019050610bd8565b60008484015250505050565b6000610c0a82610bbf565b610c148185610bca565b9350610c24818560208601610bd5565b80840191505092915050565b60008160601b9050919050565b6000610c4882610c30565b9050919050565b6000610c5a82610c3d565b9050919050565b610c72610c6d82610af1565b610c4f565b82525050565b6000819050919050565b610c93610c8e826109ba565b610c78565b82525050565b82818337600083830152505050565b6000610cb48385610bca565b9350610cc1838584610c99565b82840190509392505050565b6000610cd98288610bff565b9150610ce58287610c61565b601482019150610cf58286610c82565b602082019150610d06828486610ca8565b91508190509695505050505050565b6000610d218285610c82565b602082019150610d318284610bff565b91508190509392505050565b7f496e76616c6964207369676e6174757265000000000000000000000000000000600082015250565b6000610d736011836109ee565b9150610d7e82610d3d565b602082019050919050565b60006020820190508181036000830152610da281610d66565b9050919050565b7f4e487b7100000000000000000000000000000000000000000000000000000000600052601160045260246000fd5b6000610de3826109ba565b91507fffffffffffffffffffffffffffffffffffffffffffffffffffffffffffffffff8203610e1557610e14610da9565b5b600182019050919050565b600082825260208201905092915050565b6000819050919050565b6000610e4a6020840184610b1a565b905092915050565b610e5b81610af1565b82525050565b610e6a816109ba565b8114610e7557600080fd5b50565b600081359050610e8781610e61565b92915050565b6000610e9c6020840184610e78565b905092915050565b610ead816109ba565b82525050565b600080fd5b600080fd5b600080fd5b60008083356001602003843603038112610edf57610ede610ebd565b5b83810192508235915060208301925067ffffffffffffffff821115610f0757610f06610eb3565b5b600182023603831315610f1d57610f1c610eb8565b5b509250929050565b600082825260208201905092915050565b6000601f19601f8301169050919050565b6000610f538385610f25565b9350610f60838584610c99565b610f6983610f36565b840190509392505050565b600060608301610f876000840184610e3b565b610f946000860182610e52565b50610fa26020840184610e8d565b610faf6020860182610ea4565b50610fbd6040840184610ec2565b8583036040870152610fd0838284610f47565b925050508091505092915050565b6000610fea8383610f74565b905092915050565b60008235600160600383360303811261100e5761100d610ebd565b5b82810191505092915050565b6000602082019050919050565b60006110338385610e20565b93508360208402850161104584610e31565b8060005b878110156110895784840389526110608284610ff2565b61106a8582610fde565b94506110758361101a565b925060208a01995050600181019050611049565b50829750879450505050509392505050565b600060208201905081810360008301526110b6818486611027565b90509392505050565b60006110cc828486610ca8565b91508190509392505050565b7f43616c6c20726576657274656400000000000000000000000000000000000000600082015250565b600061110e600d836109ee565b9150611119826110d8565b602082019050919050565b6000602082019050818103600083015261113d81611101565b9050919050565b600082825260208201905092915050565b60006111618385611144565b935061116e838584610c99565b61117783610f36565b840190509392505050565b600060408201905061119760008301866109c4565b81810360208301526111aa818486611155565b9050949350505050565b7f4e487b7100000000000000000000000000000000000000000000000000000000600052602160045260246000fd5b6000819050919050565b6111f6816111e3565b82525050565b600060208201905061121160008301846111ed565b92915050565b600060ff82169050919050565b61122d81611217565b82525050565b600060808201905061124860008301876111ed565b6112556020830186611224565b61126260408301856111ed565b61126f60608301846111ed565b9594505050505056fea264697066735822122042b530444f35c623737ceb98fdfadfb08f9d906ddaeca7417340c8a1d27c6d6864736f6c634300081c0033",
  "linkReferences": {},
  "deployedLinkReferences": {}
}